{
  "contractName": "Iotdata",
  "abi": [
    {
      "anonymous": false,
      "inputs": [
        {
          "indexed": false,
          "internalType": "string",
          "name": "data",
          "type": "string"
        },
        {
          "indexed": false,
          "internalType": "uint256",
          "name": "ts",
          "type": "uint256"
        }
      ],
      "name": "add_data",
      "type": "event"
    },
    {
      "constant": true,
      "inputs": [],
      "name": "get_testData",
      "outputs": [
        {
          "internalType": "string",
          "name": "tstData",
          "type": "string"
        }
      ],
      "payable": false,
      "stateMutability": "view",
      "type": "function"
    },
    {
      "constant": false,
      "inputs": [
        {
          "internalType": "string",
          "name": "data",
          "type": "string"
        }
      ],
      "name": "set_data",
      "outputs": [],
      "payable": false,
      "stateMutability": "nonpayable",
      "type": "function"
    },
    {
      "constant": true,
      "inputs": [
        {
          "internalType": "uint256",
          "name": "index",
          "type": "uint256"
        }
      ],
      "name": "get_data",
      "outputs": [
        {
          "internalType": "string",
          "name": "data",
          "type": "string"
        }
      ],
      "payable": false,
      "stateMutability": "view",
      "type": "function"
    },
    {
      "constant": true,
      "inputs": [],
      "name": "get_latest_data",
      "outputs": [
        {
          "internalType": "string",
          "name": "lt_data",
          "type": "string"
        }
      ],
      "payable": false,
      "stateMutability": "view",
      "type": "function"
    }
  ],
  "bytecode": "0x60806040526040518060400160405280600b81526020017f48656c6c6f20576f726c640000000000000000000000000000000000000000008152506002908051906020019061004f929190610062565b5034801561005c57600080fd5b50610107565b828054600181600116156101000203166002900490600052602060002090601f016020900481019282601f106100a357805160ff19168380011785556100d1565b828001600101855582156100d1579182015b828111156100d05782518255916020019190600101906100b5565b5b5090506100de91906100e2565b5090565b61010491905b808211156101005760008160009055506001016100e8565b5090565b90565b6106ea806101166000396000f3fe608060405234801561001057600080fd5b506004361061004c5760003560e01c80630c392099146100515780636feab03b146100f85780637fc7b538146101b35780638738a36614610236575b600080fd5b61007d6004803603602081101561006757600080fd5b81019080803590602001909291905050506102b9565b6040518080602001828103825283818151815260200191508051906020019080838360005b838110156100bd5780820151818401526020810190506100a2565b50505050905090810190601f1680156100ea5780820380516001836020036101000a031916815260200191505b509250505060405180910390f35b6101b16004803603602081101561010e57600080fd5b810190808035906020019064010000000081111561012b57600080fd5b82018360208201111561013d57600080fd5b8035906020019184600183028401116401000000008311171561015f57600080fd5b91908080601f016020809104026020016040519081016040528093929190818152602001838380828437600081840152601f19601f82011690508083019250505050505050919291929050505061038d565b005b6101bb61048e565b6040518080602001828103825283818151815260200191508051906020019080838360005b838110156101fb5780820151818401526020810190506101e0565b50505050905090810190601f1680156102285780820380516001836020036101000a031916815260200191505b509250505060405180910390f35b61023e610530565b6040518080602001828103825283818151815260200191508051906020019080838360005b8381101561027e578082015181840152602081019050610263565b50505050905090810190601f1680156102ab5780820380516001836020036101000a031916815260200191505b509250505060405180910390f35b606060008083815481106102c957fe5b90600052602060002001549050600160008281526020019081526020016000208054600181600116156101000203166002900480601f01602080910402602001604051908101604052809291908181526020018280546001816001161561010002031660029004801561037d5780601f106103525761010080835404028352916020019161037d565b820191906000526020600020905b81548152906001019060200180831161036057829003601f168201915b5050505050915081915050919050565b6000429050816001600083815260200190815260200160002090805190602001906103b9929190610610565b5060008190806001815401808255809150509060018203906000526020600020016000909192909190915055507f2faa6c3230e05846918cea0bd8261dc03776aea161b0972dbafe74adb5bc9aa882826040518080602001838152602001828103825284818151815260200191508051906020019080838360005b8381101561044f578082015181840152602081019050610434565b50505050905090810190601f16801561047c5780820380516001836020036101000a031916815260200191505b50935050505060405180910390a15050565b606060028054600181600116156101000203166002900480601f0160208091040260200160405190810160405280929190818152602001828054600181600116156101000203166002900480156105265780601f106104fb57610100808354040283529160200191610526565b820191906000526020600020905b81548152906001019060200180831161050957829003601f168201915b5050505050905090565b606060006001600080549050039050600080828154811061054d57fe5b90600052602060002001549050600160008281526020019081526020016000208054600181600116156101000203166002900480601f0160208091040260200160405190810160405280929190818152602001828054600181600116156101000203166002900480156106015780601f106105d657610100808354040283529160200191610601565b820191906000526020600020905b8154815290600101906020018083116105e457829003601f168201915b50505050509250829250505090565b828054600181600116156101000203166002900490600052602060002090601f016020900481019282601f1061065157805160ff191683800117855561067f565b8280016001018555821561067f579182015b8281111561067e578251825591602001919060010190610663565b5b50905061068c9190610690565b5090565b6106b291905b808211156106ae576000816000905550600101610696565b5090565b9056fea265627a7a7231582045f7bcc719348f71924cf9b5e28c367a867aa50a81f6fd6ad00fa1118caa88cd64736f6c634300050c0032",
  "source": "pragma solidity ^0.5.0;\r\n\r\ncontract Iotdata {\r\n // IoT device data\r\n uint[] log_index;\r\n mapping (uint => string) data_log;\r\n\r\n event add_data (string data, uint ts);\r\n\r\n string testData = \"Hello World\";\r\n\r\n function get_testData() public view returns(string memory tstData){\r\n   return testData;\r\n }\r\n\r\n function set_data (string memory data) public {\r\n   uint ts = now;\r\n   data_log[ts] = data;\r\n   log_index.push(ts);\r\n   emit add_data(data, ts);\r\n }\r\n\r\n function get_data (uint index) public view returns (string memory data) {\r\n   uint log_ts = log_index[index];\r\n   data = data_log[log_ts];\r\n   return(data);\r\n }\r\n function get_latest_data () public view returns (string memory lt_data) {\r\n   uint lt_id = log_index.length-1;\r\n   uint lt_ts = log_index[lt_id];\r\n   lt_data = data_log[lt_ts];\r\n   return(lt_data);\r\n }\r\n}",
  "sourcePath": "C:/Users/Movizen/Documents/Angular/iot-material/contracts/Iotdata.sol",
  "compiler": {
    "name": "solc",
    "version": "0.5.12+commit.7709ece9.Emscripten.clang"
  },
  "schemaVersion": "3.0.19",
  "updatedAt": "2019-12-03T17:26:02.340Z",
  "networkType": "ethereum",
  "devdoc": {
    "methods": {}
  },
  "userdoc": {
    "methods": {}
  }
}